{
  "contractName": "IGVCore",
  "abi": [
    {
      "constant": true,
      "inputs": [],
      "name": "totalCampaigns",
      "outputs": [
        {
          "name": "",
          "type": "uint256"
        }
      ],
      "payable": false,
      "stateMutability": "view",
      "type": "function"
    },
    {
      "constant": true,
      "inputs": [
        {
          "name": "",
          "type": "uint256"
        }
      ],
      "name": "certificateIndexToApproved",
      "outputs": [
        {
          "name": "",
          "type": "address"
        }
      ],
      "payable": false,
      "stateMutability": "view",
      "type": "function"
    },
    {
      "constant": true,
      "inputs": [],
      "name": "name",
      "outputs": [
        {
          "name": "",
          "type": "string"
        }
      ],
      "payable": false,
      "stateMutability": "view",
      "type": "function"
    },
    {
      "constant": false,
      "inputs": [
        {
          "name": "_to",
          "type": "address"
        },
        {
          "name": "_tokenId",
          "type": "uint256"
        }
      ],
      "name": "approve",
      "outputs": [],
      "payable": false,
      "stateMutability": "nonpayable",
      "type": "function"
    },
    {
      "constant": true,
      "inputs": [],
      "name": "implementsERC721",
      "outputs": [
        {
          "name": "",
          "type": "bool"
        }
      ],
      "payable": false,
      "stateMutability": "pure",
      "type": "function"
    },
    {
      "constant": true,
      "inputs": [],
      "name": "campaignEscrowAmount",
      "outputs": [
        {
          "name": "",
          "type": "uint256"
        }
      ],
      "payable": false,
      "stateMutability": "view",
      "type": "function"
    },
    {
      "constant": true,
      "inputs": [],
      "name": "totalSupply",
      "outputs": [
        {
          "name": "",
          "type": "uint256"
        }
      ],
      "payable": false,
      "stateMutability": "view",
      "type": "function"
    },
    {
      "constant": false,
      "inputs": [
        {
          "name": "_from",
          "type": "address"
        },
        {
          "name": "_to",
          "type": "address"
        },
        {
          "name": "_tokenId",
          "type": "uint256"
        }
      ],
      "name": "transferFrom",
      "outputs": [],
      "payable": false,
      "stateMutability": "nonpayable",
      "type": "function"
    },
    {
      "constant": false,
      "inputs": [
        {
          "name": "_campaignId",
          "type": "uint256"
        }
      ],
      "name": "claimEscrow",
      "outputs": [],
      "payable": false,
      "stateMutability": "nonpayable",
      "type": "function"
    },
    {
      "constant": true,
      "inputs": [
        {
          "name": "_owner",
          "type": "address"
        }
      ],
      "name": "getTotalCampaignsForOwner",
      "outputs": [
        {
          "name": "total",
          "type": "uint256"
        }
      ],
      "payable": false,
      "stateMutability": "view",
      "type": "function"
    },
    {
      "constant": true,
      "inputs": [
        {
          "name": "",
          "type": "address"
        }
      ],
      "name": "campaignOwnerTotalCampaigns",
      "outputs": [
        {
          "name": "",
          "type": "uint256"
        }
      ],
      "payable": false,
      "stateMutability": "view",
      "type": "function"
    },
    {
      "constant": true,
      "inputs": [
        {
          "name": "_campaignId",
          "type": "uint256"
        },
        {
          "name": "_tokenIdx",
          "type": "uint64"
        }
      ],
      "name": "getToken",
      "outputs": [
        {
          "name": "campaignId",
          "type": "uint256"
        },
        {
          "name": "supply",
          "type": "uint64"
        },
        {
          "name": "remaining",
          "type": "uint64"
        },
        {
          "name": "name",
          "type": "string"
        },
        {
          "name": "price",
          "type": "uint256"
        }
      ],
      "payable": false,
      "stateMutability": "view",
      "type": "function"
    },
    {
      "constant": true,
      "inputs": [],
      "name": "founderAddress",
      "outputs": [
        {
          "name": "",
          "type": "address"
        }
      ],
      "payable": false,
      "stateMutability": "view",
      "type": "function"
    },
    {
      "constant": true,
      "inputs": [
        {
          "name": "_owner",
          "type": "address"
        },
        {
          "name": "_index",
          "type": "uint256"
        }
      ],
      "name": "tokensOfOwnerByIndex",
      "outputs": [
        {
          "name": "tokenId",
          "type": "uint256"
        }
      ],
      "payable": false,
      "stateMutability": "view",
      "type": "function"
    },
    {
      "constant": true,
      "inputs": [
        {
          "name": "_id",
          "type": "uint256"
        }
      ],
      "name": "getCertificate",
      "outputs": [
        {
          "name": "campaignId",
          "type": "uint128"
        },
        {
          "name": "tokenIdx",
          "type": "uint16"
        },
        {
          "name": "unitNumber",
          "type": "uint64"
        },
        {
          "name": "purchaser",
          "type": "address"
        }
      ],
      "payable": false,
      "stateMutability": "view",
      "type": "function"
    },
    {
      "constant": true,
      "inputs": [
        {
          "name": "_id",
          "type": "uint256"
        }
      ],
      "name": "getCampaign",
      "outputs": [
        {
          "name": "startBlock",
          "type": "uint256"
        },
        {
          "name": "endBlock",
          "type": "uint256"
        },
        {
          "name": "owner",
          "type": "address"
        },
        {
          "name": "campaignName",
          "type": "string"
        },
        {
          "name": "taxId",
          "type": "string"
        },
        {
          "name": "veto",
          "type": "bool"
        }
      ],
      "payable": false,
      "stateMutability": "view",
      "type": "function"
    },
    {
      "constant": false,
      "inputs": [
        {
          "name": "_campaignEscrowAmount",
          "type": "uint64"
        }
      ],
      "name": "changeEscrowAmount",
      "outputs": [],
      "payable": false,
      "stateMutability": "nonpayable",
      "type": "function"
    },
    {
      "constant": true,
      "inputs": [
        {
          "name": "_tokenId",
          "type": "uint256"
        }
      ],
      "name": "ownerOf",
      "outputs": [
        {
          "name": "owner",
          "type": "address"
        }
      ],
      "payable": false,
      "stateMutability": "view",
      "type": "function"
    },
    {
      "constant": true,
      "inputs": [
        {
          "name": "_owner",
          "type": "address"
        }
      ],
      "name": "balanceOf",
      "outputs": [
        {
          "name": "count",
          "type": "uint256"
        }
      ],
      "payable": false,
      "stateMutability": "view",
      "type": "function"
    },
    {
      "constant": true,
      "inputs": [
        {
          "name": "",
          "type": "uint256"
        }
      ],
      "name": "campaignEscrowBalance",
      "outputs": [
        {
          "name": "",
          "type": "uint256"
        }
      ],
      "payable": false,
      "stateMutability": "view",
      "type": "function"
    },
    {
      "constant": true,
      "inputs": [],
      "name": "ownerAddress",
      "outputs": [
        {
          "name": "",
          "type": "address"
        }
      ],
      "payable": false,
      "stateMutability": "view",
      "type": "function"
    },
    {
      "constant": true,
      "inputs": [
        {
          "name": "",
          "type": "address"
        },
        {
          "name": "",
          "type": "uint256"
        }
      ],
      "name": "campaignOwnerToIndexes",
      "outputs": [
        {
          "name": "",
          "type": "uint256"
        }
      ],
      "payable": false,
      "stateMutability": "view",
      "type": "function"
    },
    {
      "constant": true,
      "inputs": [],
      "name": "symbol",
      "outputs": [
        {
          "name": "",
          "type": "string"
        }
      ],
      "payable": false,
      "stateMutability": "view",
      "type": "function"
    },
    {
      "constant": true,
      "inputs": [
        {
          "name": "_campaignId",
          "type": "uint256"
        }
      ],
      "name": "campaignTokenCount",
      "outputs": [
        {
          "name": "",
          "type": "uint64"
        }
      ],
      "payable": false,
      "stateMutability": "view",
      "type": "function"
    },
    {
      "constant": false,
      "inputs": [
        {
          "name": "_campaignId",
          "type": "uint256"
        },
        {
          "name": "_supply",
          "type": "uint64"
        },
        {
          "name": "_name",
          "type": "string"
        },
        {
          "name": "_price",
          "type": "uint256"
        }
      ],
      "name": "createToken",
      "outputs": [
        {
          "name": "",
          "type": "uint256"
        }
      ],
      "payable": false,
      "stateMutability": "nonpayable",
      "type": "function"
    },
    {
      "constant": true,
      "inputs": [
        {
          "name": "",
          "type": "uint256"
        },
        {
          "name": "",
          "type": "uint256"
        }
      ],
      "name": "campaignTokens",
      "outputs": [
        {
          "name": "campaignId",
          "type": "uint256"
        },
        {
          "name": "supply",
          "type": "uint64"
        },
        {
          "name": "remaining",
          "type": "uint64"
        },
        {
          "name": "name",
          "type": "string"
        },
        {
          "name": "price",
          "type": "uint256"
        }
      ],
      "payable": false,
      "stateMutability": "view",
      "type": "function"
    },
    {
      "constant": false,
      "inputs": [
        {
          "name": "_newOwner",
          "type": "address"
        }
      ],
      "name": "changeOwner",
      "outputs": [],
      "payable": false,
      "stateMutability": "nonpayable",
      "type": "function"
    },
    {
      "constant": false,
      "inputs": [
        {
          "name": "_to",
          "type": "address"
        },
        {
          "name": "_tokenId",
          "type": "uint256"
        }
      ],
      "name": "transfer",
      "outputs": [],
      "payable": false,
      "stateMutability": "nonpayable",
      "type": "function"
    },
    {
      "constant": false,
      "inputs": [
        {
          "name": "_campaignBlockDelay",
          "type": "uint64"
        }
      ],
      "name": "changeBlockDelay",
      "outputs": [],
      "payable": false,
      "stateMutability": "nonpayable",
      "type": "function"
    },
    {
      "constant": true,
      "inputs": [],
      "name": "campaignBlockDelay",
      "outputs": [
        {
          "name": "",
          "type": "uint64"
        }
      ],
      "payable": false,
      "stateMutability": "view",
      "type": "function"
    },
    {
      "constant": false,
      "inputs": [
        {
          "name": "_campaignId",
          "type": "uint256"
        }
      ],
      "name": "vetoCampaign",
      "outputs": [],
      "payable": false,
      "stateMutability": "nonpayable",
      "type": "function"
    },
    {
      "constant": false,
      "inputs": [
        {
          "name": "_startBlock",
          "type": "uint256"
        },
        {
          "name": "_endBlock",
          "type": "uint256"
        },
        {
          "name": "_campaignName",
          "type": "string"
        },
        {
          "name": "_taxid",
          "type": "string"
        }
      ],
      "name": "createCampaign",
      "outputs": [
        {
          "name": "",
          "type": "uint256"
        }
      ],
      "payable": true,
      "stateMutability": "payable",
      "type": "function"
    },
    {
      "constant": true,
      "inputs": [
        {
          "name": "",
          "type": "uint256"
        }
      ],
      "name": "campaignBalance",
      "outputs": [
        {
          "name": "",
          "type": "uint256"
        }
      ],
      "payable": false,
      "stateMutability": "view",
      "type": "function"
    },
    {
      "constant": true,
      "inputs": [],
      "name": "totalRaised",
      "outputs": [
        {
          "name": "",
          "type": "uint256"
        }
      ],
      "payable": false,
      "stateMutability": "view",
      "type": "function"
    },
    {
      "constant": true,
      "inputs": [
        {
          "name": "",
          "type": "uint256"
        }
      ],
      "name": "certificateIndexToOwner",
      "outputs": [
        {
          "name": "",
          "type": "address"
        }
      ],
      "payable": false,
      "stateMutability": "view",
      "type": "function"
    },
    {
      "constant": true,
      "inputs": [
        {
          "name": "",
          "type": "address"
        }
      ],
      "name": "ownershipTokenCount",
      "outputs": [
        {
          "name": "",
          "type": "uint256"
        }
      ],
      "payable": false,
      "stateMutability": "view",
      "type": "function"
    },
    {
      "constant": true,
      "inputs": [
        {
          "name": "",
          "type": "uint256"
        }
      ],
      "name": "campaignIndexToOwner",
      "outputs": [
        {
          "name": "",
          "type": "address"
        }
      ],
      "payable": false,
      "stateMutability": "view",
      "type": "function"
    },
    {
      "constant": false,
      "inputs": [
        {
          "name": "_campaignId",
          "type": "uint128"
        },
        {
          "name": "_tokenIdx",
          "type": "uint16"
        }
      ],
      "name": "createCertificate",
      "outputs": [
        {
          "name": "",
          "type": "uint256"
        }
      ],
      "payable": true,
      "stateMutability": "payable",
      "type": "function"
    },
    {
      "constant": true,
      "inputs": [
        {
          "name": "_campaignId",
          "type": "uint256"
        }
      ],
      "name": "getEscrowBalance",
      "outputs": [
        {
          "name": "",
          "type": "uint256"
        }
      ],
      "payable": false,
      "stateMutability": "view",
      "type": "function"
    },
    {
      "constant": true,
      "inputs": [
        {
          "name": "_owner",
          "type": "address"
        },
        {
          "name": "_index",
          "type": "uint256"
        }
      ],
      "name": "getCampaignIdByOwnerIndex",
      "outputs": [
        {
          "name": "id",
          "type": "uint256"
        }
      ],
      "payable": false,
      "stateMutability": "view",
      "type": "function"
    },
    {
      "inputs": [],
      "payable": false,
      "stateMutability": "nonpayable",
      "type": "constructor"
    },
    {
      "anonymous": false,
      "inputs": [
        {
          "indexed": true,
          "name": "from",
          "type": "address"
        },
        {
          "indexed": true,
          "name": "to",
          "type": "address"
        },
        {
          "indexed": true,
          "name": "tokenId",
          "type": "uint256"
        }
      ],
      "name": "Transfer",
      "type": "event"
    },
    {
      "anonymous": false,
      "inputs": [
        {
          "indexed": true,
          "name": "owner",
          "type": "address"
        },
        {
          "indexed": true,
          "name": "approved",
          "type": "address"
        },
        {
          "indexed": true,
          "name": "tokenId",
          "type": "uint256"
        }
      ],
      "name": "Approval",
      "type": "event"
    },
    {
      "anonymous": false,
      "inputs": [
        {
          "indexed": true,
          "name": "purchaser",
          "type": "address"
        },
        {
          "indexed": false,
          "name": "certificateId",
          "type": "uint256"
        }
      ],
      "name": "Issue",
      "type": "event"
    },
    {
      "anonymous": false,
      "inputs": [
        {
          "indexed": true,
          "name": "owner",
          "type": "address"
        },
        {
          "indexed": false,
          "name": "campaignId",
          "type": "uint256"
        }
      ],
      "name": "CreateCampaign",
      "type": "event"
    },
    {
      "anonymous": false,
      "inputs": [
        {
          "indexed": true,
          "name": "campaignId",
          "type": "uint256"
        },
        {
          "indexed": false,
          "name": "name",
          "type": "string"
        }
      ],
      "name": "CreateToken",
      "type": "event"
    }
  ],
  "bytecode": "0x60606040526040805190810160405280600c81526020017f4920476176652041737365740000000000000000000000000000000000000000815250600c90805190602001906200005192919062000b95565b506040805190810160405280600381526020017f493c330000000000000000000000000000000000000000000000000000000000815250600d90805190602001906200009f92919062000b95565b5067016345785d8a00006010556103e8601160006101000a81548167ffffffffffffffff021916908367ffffffffffffffff16021790555060006012553415620000e857600080fd5b33600e60006101000a81548173ffffffffffffffffffffffffffffffffffffffff021916908373ffffffffffffffffffffffffffffffffffffffff16021790555033600f60006101000a81548173ffffffffffffffffffffffffffffffffffffffff021916908373ffffffffffffffffffffffffffffffffffffffff160217905550620001d56000806000806040805190810160405280601081526020017f47656e657369732043616d706169676e0000000000000000000000000000000081525060206040519081016040528060008152506200025c640100000000026200287e176401000000009004565b5062000230600060016040805190810160405280600d81526020017f47656e6573697320546f6b656e000000000000000000000000000000000000008152506000620005256401000000000262002664176401000000009004565b5062000255600080600080620007486401000000000262002b3d176401000000009004565b50620010b9565b60006200026862000c1c565b600060c0604051908101604052808a81526020018981526020018773ffffffffffffffffffffffffffffffffffffffff168152602001868152602001858152602001600015158152509150600160008054806001018281620002cb919062000c7b565b91600052602060002090600602016000859091909150600082015181600001556020820151816001015560408201518160020160006101000a81548173ffffffffffffffffffffffffffffffffffffffff021916908373ffffffffffffffffffffffffffffffffffffffff16021790555060608201518160030190805190602001906200035a92919062000cb0565b5060808201518160040190805190602001906200037992919062000cb0565b5060a08201518160050160006101000a81548160ff0219169083151502179055505050039050856001600083815260200190815260200160002060006101000a81548173ffffffffffffffffffffffffffffffffffffffff021916908373ffffffffffffffffffffffffffffffffffffffff160217905550866004600083815260200190815260200160002060008282540192505081905550600260008773ffffffffffffffffffffffffffffffffffffffff1673ffffffffffffffffffffffffffffffffffffffff168152602001908152602001600020805480600101828162000465919062000d37565b9160005260206000209001600083909190915055506001600360008873ffffffffffffffffffffffffffffffffffffffff1673ffffffffffffffffffffffffffffffffffffffff168152602001908152602001600020600082825401925050819055508573ffffffffffffffffffffffffffffffffffffffff167f8947cb78db2ffa53132a4e627ea0e20920cf6edd68b7b07989687e1a28e0bac7826040518082815260200191505060405180910390a280925050509695505050505050565b60006200053162000d66565b600060a0604051908101604052808881526020018767ffffffffffffffff1681526020018767ffffffffffffffff16815260200186815260200185815250915060066000888152602001908152602001600020805480600101828162000598919062000db2565b916000526020600020906004020160008490919091506000820151816000015560208201518160010160006101000a81548167ffffffffffffffff021916908367ffffffffffffffff16021790555060408201518160010160086101000a81548167ffffffffffffffff021916908367ffffffffffffffff16021790555060608201518160020190805190602001906200063492919062000cb0565b50608082015181600301555050905060076000888152602001908152602001600020600081819054906101000a900467ffffffffffffffff168092919060010191906101000a81548167ffffffffffffffff021916908367ffffffffffffffff16021790555050867fe5b49d0afcc7ff69d7e3951a9be2177564ee3f4e219a8ae6b3d240b04d359f9a866040518080602001828103825283818151815260200191508051906020019080838360005b8381101562000700578082015181840152602081019050620006e3565b50505050905090810190601f1680156200072e5780820380516001836020036101000a031916815260200191505b509250505060405180910390a28092505050949350505050565b60006200075462000de7565b600060a0604051908101604052808573ffffffffffffffffffffffffffffffffffffffff168152602001428152602001886fffffffffffffffffffffffffffffffff1681526020018667ffffffffffffffff1681526020018761ffff16815250915060066000886fffffffffffffffffffffffffffffffff1681526020019081526020016000208661ffff16815481101515620007ed57fe5b9060005260206000209060040201600101600881819054906101000a900467ffffffffffffffff16809291906001900391906101000a81548167ffffffffffffffff021916908367ffffffffffffffff160217905550506001600880548060010182816200085c919062000e4d565b9160005260206000209060030201600085909190915060008201518160000160006101000a81548173ffffffffffffffffffffffffffffffffffffffff021916908373ffffffffffffffffffffffffffffffffffffffff1602179055506020820151816001015560408201518160020160006101000a8154816fffffffffffffffffffffffffffffffff02191690836fffffffffffffffffffffffffffffffff16021790555060608201518160020160106101000a81548167ffffffffffffffff021916908367ffffffffffffffff16021790555060808201518160020160186101000a81548161ffff021916908361ffff16021790555050500390508373ffffffffffffffffffffffffffffffffffffffff167fc65a3f767206d2fdcede0b094a4840e01c0dd0be1888b5ba800346eaa0123c16826040518082815260200191505060405180910390a2620009c960008583620009d664010000000002620024a6176401000000009004565b8092505050949350505050565b600a60008373ffffffffffffffffffffffffffffffffffffffff1673ffffffffffffffffffffffffffffffffffffffff16815260200190815260200160002060008154809291906001019190505550816009600083815260200190815260200160002060006101000a81548173ffffffffffffffffffffffffffffffffffffffff021916908373ffffffffffffffffffffffffffffffffffffffff160217905550600073ffffffffffffffffffffffffffffffffffffffff168373ffffffffffffffffffffffffffffffffffffffff1614151562000b3557600a60008473ffffffffffffffffffffffffffffffffffffffff1673ffffffffffffffffffffffffffffffffffffffff1681526020019081526020016000206000815480929190600190039190505550600b600082815260200190815260200160002060006101000a81549073ffffffffffffffffffffffffffffffffffffffff02191690555b808273ffffffffffffffffffffffffffffffffffffffff168473ffffffffffffffffffffffffffffffffffffffff167fddf252ad1be2c89b69c2b068fc378daa952ba7f163c4a11628f55a4df523b3ef60405160405180910390a4505050565b828054600181600116156101000203166002900490600052602060002090601f016020900481019282601f1062000bd857805160ff191683800117855562000c09565b8280016001018555821562000c09579182015b8281111562000c0857825182559160200191906001019062000beb565b5b50905062000c18919062000e82565b5090565b60c0604051908101604052806000815260200160008152602001600073ffffffffffffffffffffffffffffffffffffffff16815260200162000c5d62000eaa565b815260200162000c6c62000eaa565b81526020016000151581525090565b81548183558181151162000cab5760060281600602836000526020600020918201910162000caa919062000ebe565b5b505050565b828054600181600116156101000203166002900490600052602060002090601f016020900481019282601f1062000cf357805160ff191683800117855562000d24565b8280016001018555821562000d24579182015b8281111562000d2357825182559160200191906001019062000d06565b5b50905062000d33919062000e82565b5090565b81548183558181151162000d615781836000526020600020918201910162000d60919062000e82565b5b505050565b60a06040519081016040528060008152602001600067ffffffffffffffff168152602001600067ffffffffffffffff16815260200162000da562000eaa565b8152602001600081525090565b81548183558181151162000de25760040281600402836000526020600020918201910162000de1919062000f4f565b5b505050565b60a060405190810160405280600073ffffffffffffffffffffffffffffffffffffffff1681526020016000815260200160006fffffffffffffffffffffffffffffffff168152602001600067ffffffffffffffff168152602001600061ffff1681525090565b81548183558181151162000e7d5760030281600302836000526020600020918201910162000e7c919062000fc9565b5b505050565b62000ea791905b8082111562000ea357600081600090555060010162000e89565b5090565b90565b602060405190810160405280600081525090565b62000f4c91905b8082111562000f485760008082016000905560018201600090556002820160006101000a81549073ffffffffffffffffffffffffffffffffffffffff021916905560038201600062000f1891906200106d565b60048201600062000f2a91906200106d565b6005820160006101000a81549060ff02191690555060060162000ec5565b5090565b90565b62000fc691905b8082111562000fc2576000808201600090556001820160006101000a81549067ffffffffffffffff02191690556001820160086101000a81549067ffffffffffffffff021916905560028201600062000fb091906200106d565b60038201600090555060040162000f56565b5090565b90565b6200106a91905b808211156200106657600080820160006101000a81549073ffffffffffffffffffffffffffffffffffffffff021916905560018201600090556002820160006101000a8154906fffffffffffffffffffffffffffffffff02191690556002820160106101000a81549067ffffffffffffffff02191690556002820160186101000a81549061ffff02191690555060030162000fd0565b5090565b90565b50805460018160011615610100020316600290046000825580601f10620010955750620010b6565b601f016020900490600052602060002090810190620010b5919062000e82565b5b50565b61325e80620010c96000396000f3006060604052600436106101ee576000357c0100000000000000000000000000000000000000000000000000000000900463ffffffff16806302932f56146101f357806302b57c4b1461021c57806306fdde031461027f578063095ea7b31461030d5780631051db341461034f578063173071341461037c57806318160ddd146103a557806323b872dd146103ce5780632ce947db1461042f5780632d85ea12146104525780633da70bd51461049f5780634414ed9a146104ec57806346bb2833146105df5780634707f44f1461063457806351640fee1461068a5780635598f8cc146107425780635cceb24b146108965780636352211e146108c357806370a082311461092657806379b42ccd146109735780638f84aa09146109aa57806391417542146109ff57806395d89b4114610a55578063991ee60814610ae35780639f0fd31614610b2e578063a20fbdf414610bc4578063a6f9dae114610cca578063a9059cbb14610d03578063ac1ac01514610d45578063ae3db27e14610d72578063b2cdc6ff14610daf578063b63e0eb014610dd2578063bd6c67e914610e8d578063c5c4744c14610ec4578063c9178f8d14610eed578063cec21acb14610f50578063ced3c6ad14610f9d578063e54f3c7b14611000578063fce609031461104b578063fea62cae14611082575b600080fd5b34156101fe57600080fd5b6102066110d8565b6040518082815260200191505060405180910390f35b341561022757600080fd5b61023d60048080359060200190919050506110e8565b604051808273ffffffffffffffffffffffffffffffffffffffff1673ffffffffffffffffffffffffffffffffffffffff16815260200191505060405180910390f35b341561028a57600080fd5b61029261111b565b6040518080602001828103825283818151815260200191508051906020019080838360005b838110156102d25780820151818401526020810190506102b7565b50505050905090810190601f1680156102ff5780820380516001836020036101000a031916815260200191505b509250505060405180910390f35b341561031857600080fd5b61034d600480803573ffffffffffffffffffffffffffffffffffffffff169060200190919080359060200190919050506111b9565b005b341561035a57600080fd5b610362611237565b604051808215151515815260200191505060405180910390f35b341561038757600080fd5b61038f611240565b6040518082815260200191505060405180910390f35b34156103b057600080fd5b6103b8611246565b6040518082815260200191505060405180910390f35b34156103d957600080fd5b61042d600480803573ffffffffffffffffffffffffffffffffffffffff1690602001909190803573ffffffffffffffffffffffffffffffffffffffff16906020019091908035906020019091905050611256565b005b341561043a57600080fd5b6104506004808035906020019091905050611290565b005b341561045d57600080fd5b610489600480803573ffffffffffffffffffffffffffffffffffffffff169060200190919050506113cf565b6040518082815260200191505060405180910390f35b34156104aa57600080fd5b6104d6600480803573ffffffffffffffffffffffffffffffffffffffff16906020019091905050611418565b6040518082815260200191505060405180910390f35b34156104f757600080fd5b610520600480803590602001909190803567ffffffffffffffff16906020019091905050611430565b604051808681526020018567ffffffffffffffff1667ffffffffffffffff1681526020018467ffffffffffffffff1667ffffffffffffffff16815260200180602001838152602001828103825284818151815260200191508051906020019080838360005b838110156105a0578082015181840152602081019050610585565b50505050905090810190601f1680156105cd5780820380516001836020036101000a031916815260200191505b50965050505050505060405180910390f35b34156105ea57600080fd5b6105f2611568565b604051808273ffffffffffffffffffffffffffffffffffffffff1673ffffffffffffffffffffffffffffffffffffffff16815260200191505060405180910390f35b341561063f57600080fd5b610674600480803573ffffffffffffffffffffffffffffffffffffffff1690602001909190803590602001909190505061158e565b6040518082815260200191505060405180910390f35b341561069557600080fd5b6106ab6004808035906020019091905050611645565b60405180856fffffffffffffffffffffffffffffffff166fffffffffffffffffffffffffffffffff1681526020018461ffff1661ffff1681526020018367ffffffffffffffff1667ffffffffffffffff1681526020018273ffffffffffffffffffffffffffffffffffffffff1673ffffffffffffffffffffffffffffffffffffffff16815260200194505050505060405180910390f35b341561074d57600080fd5b61076360048080359060200190919050506116f2565b604051808781526020018681526020018573ffffffffffffffffffffffffffffffffffffffff1673ffffffffffffffffffffffffffffffffffffffff168152602001806020018060200184151515158152602001838103835286818151815260200191508051906020019080838360005b838110156107ef5780820151818401526020810190506107d4565b50505050905090810190601f16801561081c5780820380516001836020036101000a031916815260200191505b50838103825285818151815260200191508051906020019080838360005b8381101561085557808201518184015260208101905061083a565b50505050905090810190601f1680156108825780820380516001836020036101000a031916815260200191505b509850505050505050505060405180910390f35b34156108a157600080fd5b6108c1600480803567ffffffffffffffff169060200190919050506118ba565b005b34156108ce57600080fd5b6108e4600480803590602001909190505061192c565b604051808273ffffffffffffffffffffffffffffffffffffffff1673ffffffffffffffffffffffffffffffffffffffff16815260200191505060405180910390f35b341561093157600080fd5b61095d600480803573ffffffffffffffffffffffffffffffffffffffff169060200190919050506119a5565b6040518082815260200191505060405180910390f35b341561097e57600080fd5b61099460048080359060200190919050506119ee565b6040518082815260200191505060405180910390f35b34156109b557600080fd5b6109bd611a06565b604051808273ffffffffffffffffffffffffffffffffffffffff1673ffffffffffffffffffffffffffffffffffffffff16815260200191505060405180910390f35b3415610a0a57600080fd5b610a3f600480803573ffffffffffffffffffffffffffffffffffffffff16906020019091908035906020019091905050611a2c565b6040518082815260200191505060405180910390f35b3415610a6057600080fd5b610a68611a5d565b6040518080602001828103825283818151815260200191508051906020019080838360005b83811015610aa8578082015181840152602081019050610a8d565b50505050905090810190601f168015610ad55780820380516001836020036101000a031916815260200191505b509250505060405180910390f35b3415610aee57600080fd5b610b046004808035906020019091905050611afb565b604051808267ffffffffffffffff1667ffffffffffffffff16815260200191505060405180910390f35b3415610b3957600080fd5b610bae600480803590602001909190803567ffffffffffffffff1690602001909190803590602001908201803590602001908080601f01602080910402602001604051908101604052809392919081815260200183838082843782019150505050505091908035906020019091905050611b2c565b6040518082815260200191505060405180910390f35b3415610bcf57600080fd5b610bee6004808035906020019091908035906020019091905050611c38565b604051808681526020018567ffffffffffffffff1667ffffffffffffffff1681526020018467ffffffffffffffff1667ffffffffffffffff16815260200180602001838152602001828103825284818154600181600116156101000203166002900481526020019150805460018160011615610100020316600290048015610cb75780601f10610c8c57610100808354040283529160200191610cb7565b820191906000526020600020905b815481529060010190602001808311610c9a57829003601f168201915b5050965050505050505060405180910390f35b3415610cd557600080fd5b610d01600480803573ffffffffffffffffffffffffffffffffffffffff16906020019091905050611cb1565b005b3415610d0e57600080fd5b610d43600480803573ffffffffffffffffffffffffffffffffffffffff16906020019091908035906020019091905050611d53565b005b3415610d5057600080fd5b610d70600480803567ffffffffffffffff16906020019091905050611db3565b005b3415610d7d57600080fd5b610d85611e3d565b604051808267ffffffffffffffff1667ffffffffffffffff16815260200191505060405180910390f35b3415610dba57600080fd5b610dd06004808035906020019091905050611e57565b005b610e77600480803590602001909190803590602001909190803590602001908201803590602001908080601f0160208091040260200160405190810160405280939291908181526020018383808284378201915050505050509190803590602001908201803590602001908080601f016020809104026020016040519081016040528093929190818152602001838380828437820191505050505050919050506120aa565b6040518082815260200191505060405180910390f35b3415610e9857600080fd5b610eae60048080359060200190919050506120f9565b6040518082815260200191505060405180910390f35b3415610ecf57600080fd5b610ed7612111565b6040518082815260200191505060405180910390f35b3415610ef857600080fd5b610f0e6004808035906020019091905050612117565b604051808273ffffffffffffffffffffffffffffffffffffffff1673ffffffffffffffffffffffffffffffffffffffff16815260200191505060405180910390f35b3415610f5b57600080fd5b610f87600480803573ffffffffffffffffffffffffffffffffffffffff1690602001909190505061214a565b6040518082815260200191505060405180910390f35b3415610fa857600080fd5b610fbe6004808035906020019091905050612162565b604051808273ffffffffffffffffffffffffffffffffffffffff1673ffffffffffffffffffffffffffffffffffffffff16815260200191505060405180910390f35b61103560048080356fffffffffffffffffffffffffffffffff1690602001909190803561ffff16906020019091905050612195565b6040518082815260200191505060405180910390f35b341561105657600080fd5b61106c60048080359060200190919050506122f9565b6040518082815260200191505060405180910390f35b341561108d57600080fd5b6110c2600480803573ffffffffffffffffffffffffffffffffffffffff16906020019091908035906020019091905050612316565b6040518082815260200191505060405180910390f35b6000600160008054905003905090565b600b6020528060005260406000206000915054906101000a900473ffffffffffffffffffffffffffffffffffffffff1681565b600c8054600181600116156101000203166002900480601f0160208091040260200160405190810160405280929190818152602001828054600181600116156101000203166002900480156111b15780601f10611186576101008083540402835291602001916111b1565b820191906000526020600020905b81548152906001019060200180831161119457829003601f168201915b505050505081565b6111c33382612378565b15156111ce57600080fd5b6111d881836123e4565b808273ffffffffffffffffffffffffffffffffffffffff163373ffffffffffffffffffffffffffffffffffffffff167f8c5be1e5ebec7d5bd14f71427d1e84f3dd0314c0f7b2291e5b200ac8c7c3b92560405160405180910390a45050565b60006001905090565b60105481565b6000600160088054905003905090565b611260338261243a565b151561126b57600080fd5b6112758382612378565b151561128057600080fd5b61128b8383836124a6565b505050565b60008060006001600085815260200190815260200160002060009054906101000a900473ffffffffffffffffffffffffffffffffffffffff168073ffffffffffffffffffffffffffffffffffffffff163373ffffffffffffffffffffffffffffffffffffffff1614151561130357600080fd5b6000600460008781526020019081526020016000205411151561132557600080fd5b60008581548110151561133457fe5b9060005260206000209060060201935083600101549250824311151561135957600080fd5b60046000868152602001908152602001600020549150600060046000878152602001908152602001600020819055503373ffffffffffffffffffffffffffffffffffffffff166108fc839081150290604051600060405180830381858888f1935050505015156113c857600080fd5b5050505050565b6000600360008373ffffffffffffffffffffffffffffffffffffffff1673ffffffffffffffffffffffffffffffffffffffff168152602001908152602001600020549050919050565b60036020528060005260406000206000915090505481565b600080600061143d612db0565b600080600660008981526020019081526020016000208767ffffffffffffffff1681548110151561146a57fe5b90600052602060002090600402019050806000015495508060010160009054906101000a900467ffffffffffffffff1694508060010160089054906101000a900467ffffffffffffffff169350806002018054600181600116156101000203166002900480601f01602080910402602001604051908101604052809291908181526020018280546001816001161561010002031660029004801561154f5780601f106115245761010080835404028352916020019161154f565b820191906000526020600020905b81548152906001019060200180831161153257829003601f168201915b5050505050925080600301549150509295509295909350565b600e60009054906101000a900473ffffffffffffffffffffffffffffffffffffffff1681565b6000806000809150600190505b6115a3611246565b81111515611638578473ffffffffffffffffffffffffffffffffffffffff166009600083815260200190815260200160002060009054906101000a900473ffffffffffffffffffffffffffffffffffffffff1673ffffffffffffffffffffffffffffffffffffffff16141561162b57838214156116225780925061163d565b81806001019250505b808060010191505061159b565b600080fd5b505092915050565b600080600080600060088681548110151561165c57fe5b906000526020600020906003020190508060020160009054906101000a90046fffffffffffffffffffffffffffffffff1694508060020160189054906101000a900461ffff1693508060020160109054906101000a900467ffffffffffffffff1661ffff1692508060000160009054906101000a900473ffffffffffffffffffffffffffffffffffffffff169150509193509193565b60008060006116ff612db0565b611707612db0565b60008060008881548110151561171957fe5b9060005260206000209060060201905080600001549650806001015495508060020160009054906101000a900473ffffffffffffffffffffffffffffffffffffffff169450806003018054600181600116156101000203166002900480601f0160208091040260200160405190810160405280929190818152602001828054600181600116156101000203166002900480156117f65780601f106117cb576101008083540402835291602001916117f6565b820191906000526020600020905b8154815290600101906020018083116117d957829003601f168201915b50505050509350806004018054600181600116156101000203166002900480601f0160208091040260200160405190810160405280929190818152602001828054600181600116156101000203166002900480156118955780601f1061186a57610100808354040283529160200191611895565b820191906000526020600020905b81548152906001019060200180831161187857829003601f168201915b505050505092508060050160009054906101000a900460ff1691505091939550919395565b600f60009054906101000a900473ffffffffffffffffffffffffffffffffffffffff168073ffffffffffffffffffffffffffffffffffffffff163373ffffffffffffffffffffffffffffffffffffffff1614151561191757600080fd5b8167ffffffffffffffff166010819055505050565b60006009600083815260200190815260200160002060009054906101000a900473ffffffffffffffffffffffffffffffffffffffff169050600073ffffffffffffffffffffffffffffffffffffffff168173ffffffffffffffffffffffffffffffffffffffff16141515156119a057600080fd5b919050565b6000600a60008373ffffffffffffffffffffffffffffffffffffffff1673ffffffffffffffffffffffffffffffffffffffff168152602001908152602001600020549050919050565b60046020528060005260406000206000915090505481565b600f60009054906101000a900473ffffffffffffffffffffffffffffffffffffffff1681565b600260205281600052604060002081815481101515611a4757fe5b9060005260206000209001600091509150505481565b600d8054600181600116156101000203166002900480601f016020809104026020016040519081016040528092919081815260200182805460018160011615610100020316600290048015611af35780601f10611ac857610100808354040283529160200191611af3565b820191906000526020600020905b815481529060010190602001808311611ad657829003601f168201915b505050505081565b60006007600083815260200190815260200160002060009054906101000a900467ffffffffffffffff169050919050565b6000803373ffffffffffffffffffffffffffffffffffffffff166001600088815260200190815260200160002060009054906101000a900473ffffffffffffffffffffffffffffffffffffffff1673ffffffffffffffffffffffffffffffffffffffff16141515611b9c57600080fd5b60008567ffffffffffffffff16111515611bb557600080fd5b6127108567ffffffffffffffff16101515611bcf57600080fd5b600086111515611bde57600080fd5b600086815481101515611bed57fe5b90600052602060002090600602019050600015158160050160009054906101000a900460ff161515141515611c2157600080fd5b611c2d86868686612664565b915050949350505050565b600660205281600052604060002081815481101515611c5357fe5b9060005260206000209060040201600091509150508060000154908060010160009054906101000a900467ffffffffffffffff16908060010160089054906101000a900467ffffffffffffffff169080600201908060030154905085565b600f60009054906101000a900473ffffffffffffffffffffffffffffffffffffffff168073ffffffffffffffffffffffffffffffffffffffff163373ffffffffffffffffffffffffffffffffffffffff16141515611d0e57600080fd5b81600f60006101000a81548173ffffffffffffffffffffffffffffffffffffffff021916908373ffffffffffffffffffffffffffffffffffffffff1602179055505050565b600073ffffffffffffffffffffffffffffffffffffffff168273ffffffffffffffffffffffffffffffffffffffff1614151515611d8f57600080fd5b611d993382612378565b1515611da457600080fd5b611daf3383836124a6565b5050565b600f60009054906101000a900473ffffffffffffffffffffffffffffffffffffffff168073ffffffffffffffffffffffffffffffffffffffff163373ffffffffffffffffffffffffffffffffffffffff16141515611e1057600080fd5b81601160006101000a81548167ffffffffffffffff021916908367ffffffffffffffff1602179055505050565b601160009054906101000a900467ffffffffffffffff1681565b600080600f60009054906101000a900473ffffffffffffffffffffffffffffffffffffffff168073ffffffffffffffffffffffffffffffffffffffff163373ffffffffffffffffffffffffffffffffffffffff16141515611eb757600080fd5b600084815481101515611ec657fe5b906000526020600020906006020160008082016000905560018201600090556002820160006101000a81549073ffffffffffffffffffffffffffffffffffffffff0219169055600382016000611f1c9190612dc4565b600482016000611f2c9190612dc4565b6005820160006101000a81549060ff021916905550506001600085815481101515611f5357fe5b906000526020600020906006020160050160006101000a81548160ff021916908315150217905550600f60009054906101000a900473ffffffffffffffffffffffffffffffffffffffff16600085815481101515611fad57fe5b906000526020600020906006020160020160006101000a81548173ffffffffffffffffffffffffffffffffffffffff021916908373ffffffffffffffffffffffffffffffffffffffff160217905550600660008581526020019081526020016000209250600091505b82805490508210156120a457828281548110151561203057fe5b90600052602060002090600402016000808201600090556001820160006101000a81549067ffffffffffffffff02191690556001820160086101000a81549067ffffffffffffffff021916905560028201600061208d9190612dc4565b600382016000905550508180600101925050612016565b50505050565b600060056000805490501015156120c057600080fd5b601054341415156120d057600080fd5b8385111515156120df57600080fd5b6120ef858560105433878761287e565b9050949350505050565b60056020528060005260406000206000915090505481565b60125481565b60096020528060005260406000206000915054906101000a900473ffffffffffffffffffffffffffffffffffffffff1681565b600a6020528060005260406000206000915090505481565b60016020528060005260406000206000915054906101000a900473ffffffffffffffffffffffffffffffffffffffff1681565b6000806000806000866fffffffffffffffffffffffffffffffff168154811015156121bc57fe5b90600052602060002090600602019250600015158360050160009054906101000a900460ff1615151415156121f057600080fd5b60066000876fffffffffffffffffffffffffffffffff1681526020019081526020016000208561ffff1681548110151561222657fe5b9060005260206000209060040201915060008260010160089054906101000a900467ffffffffffffffff1667ffffffffffffffff1611151561226757600080fd5b60018260010160089054906101000a900467ffffffffffffffff168360010160009054906101000a900467ffffffffffffffff16030190503460056000886fffffffffffffffffffffffffffffffff16815260200190815260200160002060008282540192505081905550346012600082825401925050819055506122ee86868333612b3d565b935050505092915050565b600060046000838152602001908152602001600020549050919050565b6000600260008473ffffffffffffffffffffffffffffffffffffffff1673ffffffffffffffffffffffffffffffffffffffff1681526020019081526020016000208281548110151561236457fe5b906000526020600020900154905092915050565b60008273ffffffffffffffffffffffffffffffffffffffff166009600084815260200190815260200160002060009054906101000a900473ffffffffffffffffffffffffffffffffffffffff1673ffffffffffffffffffffffffffffffffffffffff1614905092915050565b80600b600084815260200190815260200160002060006101000a81548173ffffffffffffffffffffffffffffffffffffffff021916908373ffffffffffffffffffffffffffffffffffffffff1602179055505050565b60008273ffffffffffffffffffffffffffffffffffffffff16600b600084815260200190815260200160002060009054906101000a900473ffffffffffffffffffffffffffffffffffffffff1673ffffffffffffffffffffffffffffffffffffffff1614905092915050565b600a60008373ffffffffffffffffffffffffffffffffffffffff1673ffffffffffffffffffffffffffffffffffffffff16815260200190815260200160002060008154809291906001019190505550816009600083815260200190815260200160002060006101000a81548173ffffffffffffffffffffffffffffffffffffffff021916908373ffffffffffffffffffffffffffffffffffffffff160217905550600073ffffffffffffffffffffffffffffffffffffffff168373ffffffffffffffffffffffffffffffffffffffff1614151561260457600a60008473ffffffffffffffffffffffffffffffffffffffff1673ffffffffffffffffffffffffffffffffffffffff1681526020019081526020016000206000815480929190600190039190505550600b600082815260200190815260200160002060006101000a81549073ffffffffffffffffffffffffffffffffffffffff02191690555b808273ffffffffffffffffffffffffffffffffffffffff168473ffffffffffffffffffffffffffffffffffffffff167fddf252ad1be2c89b69c2b068fc378daa952ba7f163c4a11628f55a4df523b3ef60405160405180910390a4505050565b600061266e612e0c565b600060a0604051908101604052808881526020018767ffffffffffffffff1681526020018767ffffffffffffffff1681526020018681526020018581525091506006600088815260200190815260200160002080548060010182816126d39190612e56565b916000526020600020906004020160008490919091506000820151816000015560208201518160010160006101000a81548167ffffffffffffffff021916908367ffffffffffffffff16021790555060408201518160010160086101000a81548167ffffffffffffffff021916908367ffffffffffffffff160217905550606082015181600201908051906020019061276d929190612e88565b50608082015181600301555050905060076000888152602001908152602001600020600081819054906101000a900467ffffffffffffffff168092919060010191906101000a81548167ffffffffffffffff021916908367ffffffffffffffff16021790555050867fe5b49d0afcc7ff69d7e3951a9be2177564ee3f4e219a8ae6b3d240b04d359f9a866040518080602001828103825283818151815260200191508051906020019080838360005b8381101561283757808201518184015260208101905061281c565b50505050905090810190601f1680156128645780820380516001836020036101000a031916815260200191505b509250505060405180910390a28092505050949350505050565b6000612888612f08565b600060c0604051908101604052808a81526020018981526020018773ffffffffffffffffffffffffffffffffffffffff1681526020018681526020018581526020016000151581525091506001600080548060010182816128e99190612f63565b91600052602060002090600602016000859091909150600082015181600001556020820151816001015560408201518160020160006101000a81548173ffffffffffffffffffffffffffffffffffffffff021916908373ffffffffffffffffffffffffffffffffffffffff1602179055506060820151816003019080519060200190612976929190612e88565b506080820151816004019080519060200190612993929190612e88565b5060a08201518160050160006101000a81548160ff0219169083151502179055505050039050856001600083815260200190815260200160002060006101000a81548173ffffffffffffffffffffffffffffffffffffffff021916908373ffffffffffffffffffffffffffffffffffffffff160217905550866004600083815260200190815260200160002060008282540192505081905550600260008773ffffffffffffffffffffffffffffffffffffffff1673ffffffffffffffffffffffffffffffffffffffff1681526020019081526020016000208054806001018281612a7d9190612f95565b9160005260206000209001600083909190915055506001600360008873ffffffffffffffffffffffffffffffffffffffff1673ffffffffffffffffffffffffffffffffffffffff168152602001908152602001600020600082825401925050819055508573ffffffffffffffffffffffffffffffffffffffff167f8947cb78db2ffa53132a4e627ea0e20920cf6edd68b7b07989687e1a28e0bac7826040518082815260200191505060405180910390a280925050509695505050505050565b6000612b47612fc1565b600060a0604051908101604052808573ffffffffffffffffffffffffffffffffffffffff168152602001428152602001886fffffffffffffffffffffffffffffffff1681526020018667ffffffffffffffff1681526020018761ffff16815250915060066000886fffffffffffffffffffffffffffffffff1681526020019081526020016000208661ffff16815481101515612bdf57fe5b9060005260206000209060040201600101600881819054906101000a900467ffffffffffffffff16809291906001900391906101000a81548167ffffffffffffffff021916908367ffffffffffffffff16021790555050600160088054806001018281612c4c9190613027565b9160005260206000209060030201600085909190915060008201518160000160006101000a81548173ffffffffffffffffffffffffffffffffffffffff021916908373ffffffffffffffffffffffffffffffffffffffff1602179055506020820151816001015560408201518160020160006101000a8154816fffffffffffffffffffffffffffffffff02191690836fffffffffffffffffffffffffffffffff16021790555060608201518160020160106101000a81548167ffffffffffffffff021916908367ffffffffffffffff16021790555060808201518160020160186101000a81548161ffff021916908361ffff16021790555050500390508373ffffffffffffffffffffffffffffffffffffffff167fc65a3f767206d2fdcede0b094a4840e01c0dd0be1888b5ba800346eaa0123c16826040518082815260200191505060405180910390a2612da3600085836124a6565b8092505050949350505050565b602060405190810160405280600081525090565b50805460018160011615610100020316600290046000825580601f10612dea5750612e09565b601f016020900490600052602060002090810190612e089190613059565b5b50565b60a06040519081016040528060008152602001600067ffffffffffffffff168152602001600067ffffffffffffffff168152602001612e4961307e565b8152602001600081525090565b815481835581811511612e8357600402816004028360005260206000209182019101612e829190613092565b5b505050565b828054600181600116156101000203166002900490600052602060002090601f016020900481019282601f10612ec957805160ff1916838001178555612ef7565b82800160010185558215612ef7579182015b82811115612ef6578251825591602001919060010190612edb565b5b509050612f049190613059565b5090565b60c0604051908101604052806000815260200160008152602001600073ffffffffffffffffffffffffffffffffffffffff168152602001612f4761307e565b8152602001612f5461307e565b81526020016000151581525090565b815481835581811511612f9057600602816006028360005260206000209182019101612f8f9190613107565b5b505050565b815481835581811511612fbc57818360005260206000209182019101612fbb9190613059565b5b505050565b60a060405190810160405280600073ffffffffffffffffffffffffffffffffffffffff1681526020016000815260200160006fffffffffffffffffffffffffffffffff168152602001600067ffffffffffffffff168152602001600061ffff1681525090565b815481835581811511613054576003028160030283600052602060002091820191016130539190613191565b5b505050565b61307b91905b8082111561307757600081600090555060010161305f565b5090565b90565b602060405190810160405280600081525090565b61310491905b80821115613100576000808201600090556001820160006101000a81549067ffffffffffffffff02191690556001820160086101000a81549067ffffffffffffffff02191690556002820160006130ef9190612dc4565b600382016000905550600401613098565b5090565b90565b61318e91905b8082111561318a5760008082016000905560018201600090556002820160006101000a81549073ffffffffffffffffffffffffffffffffffffffff021916905560038201600061315d9190612dc4565b60048201600061316d9190612dc4565b6005820160006101000a81549060ff02191690555060060161310d565b5090565b90565b61322f91905b8082111561322b57600080820160006101000a81549073ffffffffffffffffffffffffffffffffffffffff021916905560018201600090556002820160006101000a8154906fffffffffffffffffffffffffffffffff02191690556002820160106101000a81549067ffffffffffffffff02191690556002820160186101000a81549061ffff021916905550600301613197565b5090565b905600a165627a7a7230582026490edb2d29f622cb078713ac2239d2bc42d5677372e29843fdaf275e7a46df0029",
  "source": "pragma solidity 0.4.18;\n\nimport \"./IGVAsset.sol\";\n\n// Based on:\n// https://raw.githubusercontent.com/axiomzen/cryptokitties-bounty/e0d9c2c90964b1bbb242d8e3e0d9a7786cf21182/contracts/KittyCore.sol\ncontract IGVCore is IGVAsset {\n    address public founderAddress;\n    address public ownerAddress;\n\n    uint public campaignEscrowAmount = 100000000000000000; // .1 ether\n    uint64 public campaignBlockDelay = 1000;\n    uint256 public totalRaised = 0;\n\n    modifier onlyBy(address _account)\n    {\n        require(msg.sender == _account);\n        _;\n    }\n\n    function IGVCore() public {\n\n        founderAddress = msg.sender;\n        ownerAddress = msg.sender;\n\n        // Genesis is unspendable/invalid =)\n        _createCampaign(0, 0, 0, address(0), \"Genesis Campaign\", \"\");\n        _createToken(0, 1, \"Genesis Token\", 0);\n        _createCertificate(0, 0, 0, address(0));\n    }\n\n\n    function createCampaign(\n        uint256 _startBlock,\n        uint256 _endBlock,\n        string _campaignName,\n        string _taxid\n    )\n      public\n      payable\n      returns (uint)\n    {\n      require(campaigns.length < 5);\n      require(msg.value == campaignEscrowAmount);\n      //require((block.number + campaignBlockDelay) <= _startBlock);\n      require(_startBlock <= _endBlock);\n\n\n      return _createCampaign(_startBlock, _endBlock, campaignEscrowAmount, msg.sender, _campaignName, _taxid);\n    }\n\n    function createToken(\n        uint256 _campaignId,\n        uint64 _supply,\n        string _name,\n        uint256 _price\n    ) public\n      returns (uint)\n    {\n      require(campaignIndexToOwner[_campaignId] == msg.sender);\n      require(_supply > 0);\n      require(_supply < 10000);\n      require(_campaignId > 0);\n\n      Campaign storage campaign = campaigns[_campaignId];\n\n      require(campaign.veto == false);\n      //require(block.number < uint256(campaign.startBlock));\n\n      return _createToken(_campaignId, _supply, _name, _price);\n    }\n\n    function createCertificate(\n        uint128 _campaignId,\n        uint16 _tokenIdx\n    )\n      public\n      payable\n      returns (uint)\n    {\n      // Ensure campaign is valid & active\n      // require(_campaignId > 0);\n\n      Campaign storage campaign = campaigns[_campaignId];\n\n      // Campaign is valid & active\n      require(campaign.veto == false);\n      // require(uint256(campaign.startBlock) >= block.number);\n      //require(uint256(campaign.endBlock) <= block.number);\n\n      // Ensure Token is still for sale\n      Token storage token = campaignTokens[_campaignId][_tokenIdx];\n\n      require(token.remaining > 0);\n      //require(msg.value == uint256(token.price));\n\n      uint64 unitNumber = token.supply - token.remaining + 1;\n\n      campaignBalance[_campaignId] += msg.value;\n\n      totalRaised += msg.value;\n\n      return _createCertificate(_campaignId, _tokenIdx, unitNumber, msg.sender);\n    }\n\n    function vetoCampaign(uint256 _campaignId) public onlyBy(ownerAddress)  {\n      delete campaigns[_campaignId];\n      campaigns[_campaignId].veto = true;\n      campaigns[_campaignId].owner = ownerAddress;\n\n      Token[] storage tokens = campaignTokens[_campaignId];\n      for (uint i = 0; i < tokens.length; i++) {\n        delete tokens[i];\n      }\n    }\n\n    // Escrow\n    function claimEscrow(uint256 _campaignId) public onlyBy(campaignIndexToOwner[_campaignId]) {\n      require(campaignEscrowBalance[_campaignId] > 0);\n\n      Campaign storage campaign = campaigns[_campaignId];\n      uint256 endBlock = uint256(campaign.endBlock);\n\n      require(block.number > endBlock);\n\n      uint256 amount = campaignEscrowBalance[_campaignId];\n      campaignEscrowBalance[_campaignId] = 0;\n\n      msg.sender.transfer(amount);\n    }\n\n    function getEscrowBalance(uint256 _campaignId)\n      public\n      view\n      returns (uint){\n      return campaignEscrowBalance[_campaignId];\n    }\n\n    // Views\n    function getCampaign(uint256 _id)\n        public\n        view\n        returns (\n        uint256 startBlock,\n        uint256 endBlock,\n        address owner,\n        string campaignName,\n        string taxId,\n        bool veto\n    ) {\n        Campaign storage campaign = campaigns[_id];\n\n        startBlock = uint256(campaign.startBlock);\n        endBlock = uint256(campaign.endBlock);\n        owner = campaign.owner;\n        campaignName = campaign.campaignName;\n        taxId = campaign.taxId;\n        veto = campaign.veto;\n    }\n\n    function getToken(uint256 _campaignId, uint64 _tokenIdx)\n        public\n        view\n        returns(\n        uint256 campaignId,\n        uint64 supply,\n        uint64 remaining,\n        string name,\n        uint256 price\n        ){\n\n        Token storage token = campaignTokens[_campaignId][_tokenIdx];\n\n        campaignId = uint256(token.campaignId);\n        supply = uint64(token.supply);\n        remaining = uint64(token.remaining);\n        name = token.name;\n        price = uint256(token.price);\n        }\n\n\n\n\n    function getCertificate(uint256 _id)\n        public\n        view\n        returns (\n        uint128 campaignId,\n        uint16 tokenIdx,\n        uint64 unitNumber,\n        address purchaser\n    ) {\n        Certificate storage cert = certificates[_id];\n\n        campaignId = uint128(cert.campaignId);\n        tokenIdx = uint16(cert.tokenIdx);\n        unitNumber = uint16(cert.unitNumber);\n        purchaser = cert.purchaser;\n    }\n\n    function getTotalCampaignsForOwner(address _owner)\n      public\n      view\n      returns (\n      uint256 total\n    ){\n      total = campaignOwnerTotalCampaigns[_owner];\n    }\n\n    function getCampaignIdByOwnerIndex(address _owner, uint256 _index)\n      public\n      view\n      returns (\n        uint256 id\n      ) {\n        id = campaignOwnerToIndexes[_owner][_index];\n      }\n\n    // Contract Management\n    function changeEscrowAmount(\n      uint64 _campaignEscrowAmount\n    )\n      public\n      onlyBy(ownerAddress)\n    {\n      campaignEscrowAmount = _campaignEscrowAmount;\n    }\n\n    function changeBlockDelay(\n      uint64 _campaignBlockDelay\n    )\n      public\n      onlyBy(ownerAddress)\n    {\n      campaignBlockDelay = _campaignBlockDelay;\n    }\n\n    function changeOwner(\n        address _newOwner\n    )\n      public\n      onlyBy(ownerAddress) {\n       ownerAddress = _newOwner;\n    }\n\n}",
  "sourcePath": "/home/hayek/igave-demo/contracts/IGVCore.sol",
  "compiler": {
    "name": "solc",
    "version": "0.4.18+commit.9cf6e910.Emscripten.clang"
  },
  "schemaVersion": "1.0.1",
  "updatedAt": "2018-01-19T00:59:36.471Z"
}